{
  "algorithm": "unknown",
  "description": "P2QPKH invalid pk_ser alg_id 0x11 (ML-DSA removed)",
  "expected": {
    "valid": false
  },
  "input_index": 0,
  "prevouts": [
    {
      "script_pubkey_hex": "532082cea33c52fba7d70d33c843a39b41b0811bc36c89467c43e12786f64fa1828c",
      "value": 5000000000
    }
  ],
  "tx_hex": "0100000000010101010101010101010101010101010101010101010101010101010101010101010000000000ffffffff01102700000000000022532082cea33c52fba7d70d33c843a39b41b0811bc36c89467c43e12786f64fa1828c02fdd50e001111111111111111111111111111111111111111111111111111111111111111d7d8973e9109891325ffd4f6a2b57c8d42f423f9b420baaaf92830933ee78814b6bdeaade03354b1cb0bc076ab523f930a8c503a7a29bc16931f977a75c13ea900000000000000001e0800006f000000357a0100012e0100cc000100b5ee0100cf7201004ef4000042e80100b5ef01002a01010006cc00005c513eef99653ebabd8bbc9cfe0e562fafb1d5879c8b0abece6678eb3fd1f4486f85a7ef9708d4edd8630cac19af7a1ed1f547ad5efb88432e3b9a05b91228fa6353b8a01440acfb5674ea2abdb30ca235caad3e481e300aee468f832c0434e3a9bd6be786d536ed501882b85794a15804324792589ca40d6c42ec7643a89081d43c3fda575728ec605488314490b0bc28d5e074990a95234a57fadbea78850175009bf8029d1718ddd38ea7ad1f3c208ab082296dedc79e40c028ee72f23c1302ff9724d353287b8d80becaaa2610b6e5295d48eb7ed981b43c65ba37ec6ba02742690ac9972c4a221f1faa3d0ae478df65d0923d03753fe69a60d09a48adec3c577d48d16e91a847e284567550508b7b334229a1c80fa1fc264d68a9848f7a067262786eb75335312b5bdc7b0e522d54fc0dc9cdc682fd5e9a75dc137a1426ed5e385c97757180065cf98a2382d422d434f2c41e4c81bb04aa9f20d895b79939db950da0dcf047dad0bcf0e71b92fce7ac8085cccbf2fbc160a1a6fa0fd736976f6aa0bc32e13bb55d1180e0c9eabc83a0d29326fbbab70c9128e21dada4066e22e2b0881ab623583cd84418951b3aa814caaa2901da0735b7a9f4360f71da90c12aa9fff080ed630d5889353a73fecd92911abe425b85fc0c1c5b6175b83adc35556a0264f9e2b1efc9278e59af41c6d5bf6b693cbfb1ba4e87634554dc14a3990b416d903cd7755e818f7d369ba3b89cfa9951e18bae8678adcf25ec7945aacb53ae16c654e31ead9ae1c2388e604d18631e0117d6cd65d204b6952678409a634cc6ea14826066b627f483cd63ae91fc6c106ea8cbd7a508b331cd10ea33ccc66fb5a6ae9cf2108c5a233ddda1af66e8598601415bc6fbffa851d07d83b0c61122496d02679a4db57a08172ba259e75ff9e49ce6a4889f2a635f776196d2b2b65c38487cd07e3192b9275511dc48c70b7370715ac0c876311879beedab29ca1e1899656cc1cc06b80b79106ec3e67dcc49bf4e72341fe27e5bd42ef4e04f68d966a4706707d9664e69de39d28722c0b7715cc4aa1d3ec30eb0927bd43dc0a06b9d284c84491c2c71513d5785de1613d33d63c264a086a593cf6f7e5e3b15a8742455a393802e5364d5153afc2fdd849e3bd8e5aaeed38fba276cb523d53106a5cee77b4de06c4000a8ed52870fd966e69a4606fc1fd6d195a7e5fc292a30ebf483ce238988ecef7b37aecddd5a7733c50d1481eca87cadc5a1707f322ef0fa369b0ee373829491d0971c5bef588fa594fb27678c3fe0d421ea27492c0e20196548df43b25c7caa9a2df7db0a65115574bd5b394a8bd16c40a53f92e238666bddef0be461ada7aab1986128cd65d2922bbed9cc4525c80bba345fed88cba636010532e6889f0df44cb28703a07c15c651698f4ad1fcdc198f7bd1d3b7bec50e273f7c9cdcfc3b2d7f60c86a7470ae1232ddaa523e815aaa537dd3f92be3f030f2d4a654be3a9130d91c5cabc8e78fad8aade3503a35122c30e950774bd55cdf519e92a780c9659501ca1e4c2aaedb3a3184dcd5ec282158e768c2ba77f92345abb17f04c9094d05d4059eb930fe9c0af47eb9d18992067d4df7710c01587003e00966df76533b01e324860eb46125498748dae6b8c734a57a2c4c20d5e81b41e23106aef1763fb959726f7b70476d5eddd9f1c7fefe1cd62313bae44b8575bf03dc3f7d7a27a726c06f52888f0f752e491beefc7bd2ee6c8b88b0d8beaa573330d87ef5e6c3dc023bf108fce3cef0ffff9fc34473d4b69bb8066cd45f816d90d5d1b0778de65f50ef4d3f4c0449e7ce6f74ed1a695a80e104b55596aa358a0f6d998f5c84b8c2287cc4f643b59c96e89d5bb81e12d93b6e05c18bdc7758417f8a98ef1aecbbc195ee513bf0f30dbcb45986e4e8e607ee6e2edd1efe06b82e43003fe577a5bb217bef0bc9ac9ea451538449943c13a2da5345f74cf4f18fca0ec6dde3ea44ebed67e5c2e848a213bf01bef91fa4c14b043542217aac31696b9e7d7be074f4d0747210adecbab6bb3067d84aeb04e00d554dceeace9dd5fd695974476dd6638bcdcc5d2400cd9a03c51baa423ecaf6faa6f6153f9a9c2f1708b61fe29fc020e1fd33696ed72aa9eabb064d3b8b6b7513011009ad32d85597a48d39f73d4697b399af8e1546e3c240ea20225b0aead9ff603494f6fa17e7a09b7f115b4982c6f0933a1e7fea17c9f839260aeb7bee0e1c1d920fa2d26debf8e51393149411b9a7b004997c15c5ccd5a2736972f1f8e5750d0618942b8547e4f10fc38463c2825ad593c006f081b22d4001efe8b1ac7946e72d0851db29c97d8e3b5bbb82e241e3063cedacd689426cb6a071b1c268f617e62d9d5733dbb82816149bf2d87c3f101d2b646d635ad8d40eae50894b1417be5fcce5e018bbccc64ff139fee77fe5d583c82520e01c6ca86e1a25d85be7956f5f7285074ff1201bb66ebe6227eb3c8460ccc30dc848a52cc183f83f3e526151841c7194edf80e901f37a37a0fe7754ec41a7d44f336019779730f021d3811d14043ef6f0f2b5c6ac086152bb28c134318ce30640ac657bacee7825027b072612ca0b816d909a9c8c163051514a7e930a3474c871135d0d5eba36d033d8212f02ebed87fab87213851a0f6c27dfab3cbd6265f07b0a3b89e467fd76d52d43bbdd8b3d970bdcb298f7d5e9b34e63eb49ec1698bf502eb17cf925ae19ad81b22102ecee97d2e91a4cde4c0f48aaabcd23d759fbbdc64c7351b10876ccf6cca3262d67cba18bafce8ecb3bb3a9bc9bf078cb89ec020fde544bbd2474393112bfe1157d1da2bb9fe7b2c283322680b1b21fc17baa1f867b2b9e734cbec048e0100000000000004010000000100008993d1069b9b521e27f540a59040f6725de91454af7660ef845d0b8cfa72c8e9473fd83f94c0761273f8c8b857cbd53d8c99c1b6895f87e811f6dde4314c29a73497e18b6b7d2e3268f778caa427dbe8b8392c98be8ca1a950fe80b15d320966fbe8377f4171390ee99396fa3fcadee64be7165c2dad1797997a0a4ed1993c2f5118a74c4d95a0e4ba5b3c2a99b010ce797ab779c7ca5235caea521258da5715973d17f414fb18150336a23713d30222acb6f8edb2ddab39f0664d6631f026afd006d68b713f235d454d4e74d942332d62a5540c8a986634ffda50ae6272e1c7f7a110c5184458406e4de56e0c5d70aa1264ecba06b06c8d09c2652cf95f289a08003090f028cfebaa423dee58afce6ebde28e26646dcfaf72774577022778466f7d5cb684a84149119499de2d88c49aa33b6a1b43b25d16d5308c4a18844a87a899695d5d837ffe12f94bca3ed1a8dcda0b7785deda021b7632a954f20b543a4ab5fa6eee8e1041abe88069cbc9565ac9deef06ab0178846e86ae3e9b3ec70e87888e010000000000000401000069080000e0bf29bc1d8d0b352b87c777cf90c6b0f9c73750768485915cb701946ff47d639b0cc5a3c063541c0944b9dc4f2454d308c166c95434e7e304644572326f06f1a3c7fe22f91b0b226bba1f7265346fbfa44d6e754a2814957abecb5055c17dc97607c984c5f3ee0202263b90d573e35aa9f79292e6c58c674c0f37a36e50eda711d890e17d792d98df448266dcc7b74a1b2d7cbe3660f037584ed65f13ea91b809e8f2874c9aed612c92fc6170ff7d667d4afa2b130de8b6869d33524cf55a6d1988cfae9c93e662aec9ac213f0ab58feef8319b02ae54446b0042827550d58d0217b1274415372fb7138d32453d617eb2980670e526f5cd79202b775b38546e080020d28c6ce4246ccd7bdb944c4f35f3e2a0687d7cf7ca3d49fd590b18bbd2ce63cc02b24c09bf5cdf5b0fc0f2982693b491249d3b11b41bb3a24dcd40c62333cb8adb2e087ca0fb5b39cb030d6307138e3243778352de97be77a98c5ad28a8d8ca25c28a7cb727f947bbe1c9d295e201342a28fbc637b64da0586a8a11d012a638e01000000000000040100004c010000d675962a63e09323c86ba22ea259c33a895a3848c60b938b90401624b9e2540b9a106f5bbb6dcd3b225f4a34e2956feb8a64142acaf3b1bcf963ad07f32b22858a0b308e50ebf07aa11202a8d4779562317a622fa73b940c448c567775a3432adfa7336de84d376cd893a81f0bebf9057c7ac0fd4250a4fd4df000594a97422f4c4999622356e2f7f7c710fcdc07bd61db21d02a15c2e223956981758dfc006f4af63df5f7caa305d3eb8fe58fcce161dd90fe7c24c930bb07ab7e6037525d02ace6ddc71a9e5c9093fc81acaf4e828693945a698e5fdc189bc2614fccf89c28afcbc745bce1cc950131b7210221fa9290d795aa04d62e3c25420884a12dee490800fac169f98153590ec7c4c47eaac8439381f902fe4d3a9db71417ce5539f112f623b81d82a4fa5fb58fc1b86489ff353d04a6b2adc89502b3f43df3e89dbc0f0c644b1c0e153b4444255924c6c991cbb6e16c51be632924cc8cf932e27728e4a128c73228bb4d26aa8b4106dd7827ea0ab5d53c38cdf8159acc48f3d3b1fdd92c8e010000000000000401000048030000a9cf1b8ca2fd93167aa8abb17af30533eed7732657d58540135802df1f84bcecbcead36ab6b25b046bec9512e295767529056dac602632523f52fc7fc3202230d0e171ae25ef4520014076af6a4b2c570681f61ce548615c239156c97e71de350f5a51fa048309607d923007f38a6a3127b725e19af1be6ac15195c4beb5537dfecd6998e6adf5984b365bdc5579dea8b7df1e0e99c1a68db2127b6888ee3a1ca7e1dfc9c2031a5d80e85de4a8325030480ae7cf401f57229049771fafda168b0198dc2862caa2be174a175c5e0f727672e29613f2e76d2916ced9dc0f4033424cf3294f0cb4ab7e9a12f648e144dc0191fbd78544b26283d23fe324765b6f0c0800341d052ad6aa953f028445963aa30bb0f277082d1fbe3f6fdd7c842b2bfcca91047436f9223770b270b04fad62cf154679cd1d3ee0ac1e82fc623786283ecd7c62f2d449f72c057e3b332bb7e64f98af3632b4e438fa24db1488a3ad1a23989863b9fa8b5367ea3c5c5470c32071ed9ca4ee1e3d98ac869d804e5c94a062f7ea0111118644a654b89bcfaf82ed4063e440798b00000000"
}