{
  "description": "P2QPKH invalid signature (tampered byte)",
  "expected": {
    "msg32_hex": "ace7d8a7b23d91fcad019bd3192a3aea238e0e8dd0c37ac89a8499508a05db1b",
    "valid": false
  },
  "input_index": 0,
  "prevouts": [
    {
      "script_pubkey_hex": "5320c1c4c66f58f62df94d795e6adeb2c77ec2aad559553e7cae8a1fa70909ef9d06",
      "value": 5000000000
    }
  ],
  "tx_hex": "0100000000010101010101010101010101010101010101010101010101010101010101010101010000000000ffffffff011027000000000000225320c1c4c66f58f62df94d795e6adeb2c77ec2aad559553e7cae8a1fa70909ef9d0602fdee0c0350c15bac6c6437f1579f6c73bfe3e192f7e68a38d513b721b86c81110e64f8d2a9e7558814ea15ef404ac571b49b0ec1223c569a305b0756d89bde75348c7f7e1fc67d7b966cb0c26cfc4f389ff85bfb6bae9853dc30a82490a0b711b752aa70728bbde0770237ed71d31cbbe441f963896b7d25372fbf5786fcde8fc7a2b964be77af8730a5b2a75bc5861c02d2be995afa65bda2aef6231f8ea2c0574a9f7c8a8e4129d7c9e431b396ba06e0cd025272171c9edc7559431cba54b623e41221c8da0a5e7110b19e19bb2b8f94da2f10988c353568087e2ec9c03e51fe2e0fa95fc036b92360df6b74f713e746d8cd7f17bde352aa4be486de277592dfb3ebb5b0cf2cd2c6db5bb272a9fd96f0b4b5748830433e4fa5afa2095de31ee4114f6a787fd7874431c01041e734998711271ee55ef1b0c3dd9e705ccd2681dd290ee3b50fc88dee59988e317b978e54e698561306f1af6ea8d5c9110f4a902342f2137360c503c6117b0d770692fb8010ee09819d2fb03071c591476c3c31072e57f69cde69556ab60ec4694db61b4ae65c818f46213380d030276d808c40cf9c271c4789bef0b91baee9a3b21f4fb98c16a6e2f697fae6408aa4f3c2a22ea22836195525fe9bf2826a28b43477652adc876d1ad93d2e4cfab693f2e83d06195747b0343dadf598069f8b88d820a6667d5956a4968cb8f5b6872cca36dc07decb3855219cebfbdf21209654cebd81dbc2182056f72fc355430672e5edfcc4b475b635f10bf18a748de45f1e9cbf79e54ec5c682b5f8f0192f4df977179df558fca24c43c16aedf277414825bd2ede4e63c039197d36b7175fb8087e7312327db14c2e9c602a9aa3de31f0ebadde74681b12fa0b0b80253db13fa7e8cdbea17504c4beb86c8be671d1d05381b119348fb3bc4c5315705c4e519d42fd0a191e4597964da67879c8e37914b6866be1c04193bdd134c2fa3abfe111b4e8e965a5930fda9dd4117a2fe1a656e0e7270d7a524bd6faea8240e8638cd875c7d41ff2ac80dc75c74fced4950749ebe9c2ce13ccf42a1ff500f06d1d6c8a621f5c5c296002ba3aaf5e8032ac32e979878df9882424f5a8ddcbb38332292db7ac78ef07e878b7b7fe4058a403d41de9c1535a3636958657b4974c24a7fde17e7344a9f199bb6b77bdf4ec422286a9bd705cfe53e056c66593875134a02f1009677c88fbd4d658798b153e57648d5fa2737efa380d11d0f1edeefc9416d1cf31f2c5a385797e488338f7388654c9e74d62f6f0a6bd6bd1ff8bf8b7570c187e440386129c203fb45d82006e9204ee05138a1729a0a2df4cbca5e963e8283d67ca468580e85321b7ce5adb089740e2edabd5b05fc1561c96af81bc5a46cb618ce38de4e6caa27cffb1649eab6dd79e60d1947b4d3413f1fa72295b83c8036f7657939e4c2e0c895e2be1c77f565d3ba1237d787f1b8127cc5252cca431b62364e01fddf97593576d3164e4cbafd8d5711c0eed0e058c7c82ac4962b9c71b18710fbf396bffad64b37749dd393a933d5ecd23277ff3cbb88bc34ee214cfc08b236d2dcb6597f26b651e0463169f0ed2a45ba040c4947ed3f2a8820cf665cb6426987939e10d027c249581bd6ff3ef85be605bd9e60c371487ee54ac6f82201647f6f64e63363913b6cd2fbd405b44f1ffdab519270a7c96fc39740b5f42aef72170a619aac6805cce1bdd406e0cea0c0d59e7d125fd77bdf89f8a59043155601200bdc98aa561ebcd62bf1d12592c095ac1c7d5abf0a6f727a36dbe7f30c12c2f3a5940bd24a6c6f97dfb0c66c0d57b45d1f58ef9dda4fa01c029ec1e49bde764c10374ea22d12888045df7e5e2f02d8dfb6073ce771e14fdbb98590a78a1de770f15940abd8dfeb29f6e7d05e64d384ce254119b0e51d3ca9243cd5dbe171364db90d5d51e27bbb367d222d4f1a875d7514aa645f260f8855d27adb03719b4ce3e4907e0841562f0e36f35f538df49f138749c7ea15c8f47c784912ba250cde7720c599da01a23d8a4314c7e35c2e0fb3c17ffedb8288a1f63b8718fb939a8330b7cb0050d3bd27d38ea3aba7104aca8617483ea6c8b2720fc20346c57c745c7707268a45f67586dd36e41a2e24db4d305bd6a1da398dcebe4739cdb47137fc50c47c59203eef9d9f042a8fbaed119f3f74ce86f22c8656fd7d1254efcdde59f12f3537bc519b96e42a9fb507914638844cf262157c08a4c6de17561cf47bd5bf3bc18384cff6499cdca590914ea445c296b49cbc95b2db5a537b844d5c4313f87c8c450332fc3d924e5b92c3dddc85418ad3120c9bccc1b6b4d0cbe32cda92844d5f6bd1e5617191875f94e2bd7fe9de6173151bd717f580fbd23aac7048e04a193bad34abcce1d8edd715384705c114178c92ff07d54e2715de2bca24baff001d74e1b2c41243b5ff519a41e00ae1258866e38770f05e0932fcfed021bcdb06d1e401b7ef3d4cc422dcb26a982ea89a43e16c3c7dcc3bf2164ac89b88350b09deef0b5094318c4d5d154405cd237cb634d3cd335ca9bde5b6aee0445ce2b440cc4f8f68ba35c8e459b500d4b2b74c6c3a10e0eaaf1c6904251da27678d2f0ebf11ac6d36b65306ce646cdb64169bd962105feae5518a01ea6fb9c258d7291f0e880368966ed1b715958a76d03a11d59907c4ec83dc11ac9d99b074697cfc4b41a4cfa4cc64b19d8205208617483eb5ae1589f51b15494c7986dd81d5bef5befa959316560740fa28481207e309b9ecb99575f4db79bcd41bc43f5b7d7a17b1e18ec42f4abb5ae16371d68f985f772cd314cf9d88701a194b9cb843b322e7b3f8bc2f790b6da0525f61b95ad78435f5749893e82003ad9ee5b72dc0dd34dbcb9d8e5b6fbc7e4f2db83e536020b2b53047e9f0d69fb8d755aa57a1b4a91cbff865da3e514f3b05e743fb670a80c6aa7f4b294d541c4b42071e322dfc30b2f56e9eeb41a0cce51b6ed8e48af4ea2cb4e9668e76187da8918c8aa78be897350a021240fbefbb1a6b37da520cb21510317b6cf15604b5c1133604dc7c76dd675956eea98cd036fa4c52c3adc3e7a63deaf4c3d3325626023746b1241274060876015c4d8e9ca6ce4674346053063ecd3b355f0ad3781ecfb6f719edd95d42c0c5c7b20a2ff56dd27f01e5787b18e1e299ca80fe40037b134ebd63dd0e95c66781aa9b8d67baba24de0731e939b98211ae21ae3c32f279c82284db808afde26675d8476cb03d97bd75ee1c8299db65a4c04e1a081ed5789af60411c32197d0d6349af23d23bd9665691f903a0c0241631b2e8483387e5eeb96ee7d62e0940a38c45113a3a264645ecddffe0e1572cc8dc0293dce3c8413f1af4caf06c25ab5e46e47f0e5f5a13f77d4766958f40c8dd1619dc330f62e91aeb0ee55dab342bb397b60914c5ef8ca20e23891df33336a03147658d07892737a090e8b41cb6545a13a104b1e5b08d18c17f94f81e97e15a68f9ee45896fc640a67e2a967703b8a60a9369f22ac6f0a1324314076b720d8c38b7c5cb3b80718b2d14c548774bff865c0e55dca671aaaade301a9fd73763fe3c18bc3672602a8ff17b07edb698cbe5dd15dac5339216a010cb94263396d5af0454936977505fdae04ac7ee9304eecb7f2dfb05d74ece473253ae509d485bf2cd5b7b43f1909f8e598d1adc1d913cd9be8bc0caf3f7db61c8e7cc1575de7cea0a7d76fa39ee4bec826e23f9718628a97d660e04dfee47c39795c74075699abaae77f551d3aa896ac2ae4534565b4922765b6b2a4e871cfd1270c4312d816de6658597a1be40ab994e8c4d0903c200ae98547341b8f0f6e7b3e0a6c9b01c03aaf40f76a0fc698c395911450f5a1bb574b3ea831e79ceda1d23d03bdcdb275bef37e532e69aec9718cd6fa004b6eed7c572be6828934df6b6bdf45d2ad4bd0ec7bff952f49aebaf22af73d2c314c2487b1c4113f57f6f293ba7034562c3e765fa15ca994f91a23cbe0b17139abff63e0029a9df569e3d8c40783cc974ff4e31b5b3b10b02faec03cc44a368cf1afe1f60e70abbf7ad6e776418b3d9b60f074d522eaeb50da53a5eb22a7b924e50fc2e883a43a4371ca9df91281dfa66859e42408ec38c99ffd9943016a7792504e867930cc606fc67dd0d43ff06f109f50667b1d167499b05aa0f134d95aab22e6854e8bea1fd2ee4a8aca3431e6f4e08377fc808d20f42e61cf38cb0758586adde7e51e007d829875ff5079960a2c4ab6a5d36d629eea24c03db6b15be619d28ca90837bbea08085848d09daa39ff0b1ecd49ce738b0c60ec8ffd6487d754834de670c93076b68ad68028b3d05c0060bba0b5816a3d007c3f733a5e9b8bdddf4208a4053a3430fe17e65dbb01d9af966ce365fc7166a31c6a5c98dbc469a5931ab3b968069a05dbfcf76fe22e95b3c2de8b89eb977747de231648b4098d278218f97d45cee69228f42d58e8d57a7054d8557380715635e840f5bd1613430658f2514491278a309a3d919510ec93d5c4f11918664597306d147f0a1930b5070d41b00e2dc635d0b2b40b7bc9fe9ce810c14580032231e01733f4a904da42222428a0000b10336164a603990f46585f8eed5872e6eef80e3f9400000000000000000000000000000000000000000000000000000000040b0d13181b01fda10711473570fd15836e8a522351e76dd57286e07c78d68ec5a64ccedaa729c6ec211ef73cff2a33e0c3d93916ba0dd73721c3ef39167b728f1f8f6fec77ac5a36793c2be31d0678b87c16d477351df5108e67221bd17e7e4eff7be3e227a4ed5244e5a893446217255b0ae65af323c7856f893bd706a73f3db6074a68f0b76e3f543eae422e92399a82b5b58d0d39d2c8079671c2a62d0b0b405e05f2ac48bee8fafab190ddce65c0e414ed67c245813ad4da281778a57bef628d625219cede649d9ac4f494aa6e836ebbbfd154a626b991f436d384aaa3c7a8289374ba21277a394984c3459f1ead432a5b24a5f51efd672e381b44a46021f6247a500e8c783ba6395f8c97476aff5fe795e5128b330e5783cd1a62fa36c7f54a620bd15f3f04e5c7104adcc02d47fe70771490062d55e79fe7a763ac4b4c7ea598c6cb9e8554bfcf21e9a176d02e4ad6e430c23333a41bc8c47149d97cbb3e02ef7ef5aaa4104fbc5497bb99f91942393753ec70793c72b26601a7c9fa881660d78520a60ffaa5b0f4fe5f0fac4714ce7635995242b8e2978969efd14e28dc779872f7f51d8cb783444322ba4f3c6af6093d680c10488ea377ee5e7cdcb1cb5c44f6424befbeaae8a1de892f13df10b667d85a57d942deeb3c698c8d12e33e6ea8eabd375be9e7937c0cc60f1b4e0c5751c3e5891e719b04f32c737db601c461e3642a0c59b0fdd5d03c66a7fbe7679d15d6155b1bccff9957c9158d285ed1c80efeefe7cfc7728a4c1a950689569cb7f0d79358232acccd1d67cca689d9f2192abaf8fb2efffad677247702291782972011a89380c5ebd157f01eb954fb8224283caa5b036b65a3ff8dafd84a64c597e73cc9cdbef737af5c425a94048e875c2461794e5e649aa985583d0f724b2818b7cae5e409fdbd2ea76ee8f77dd70123d7def9d483cf5bef80b0c542639259caf1ec8cc38ab085829b86d6cdbf07ebe72dfc3662df7b0ead5ac7a04dbfccff9d3f1b5382967cac53b33ef9bf8e064a960bbe5eb90d97f81978299c92d97f085d1d8e13a57c33b8326a36031b49dc564f7da41dc04dddf4c6d086ec1184978fe504383f9d1659f4c51a1da02353a1b4b1ef41709fea76d2cbabef8f4b05692164ab7032fe86cb64545b65d0b4b77600355d5319f99d6e854323c04c1ce0610516a07ffb5fe40a9ff7c078199eedf969eb18d6a7d18c1a3c2c06a77bbded6c9ede38720349174b6652c2fc1318d6bf7d122de92020cb2f1a48ba14d155bc888dd6a195dabe864596fb98a680f1d2db62e4454e918fd34237d58cd533f5650e12fb19167e8b6d65e7a82391073d8244032724215489f2132f45266cafb2a8eac6d2d67952ba29a52680e5b01e760d7b8d25334df3b0f01480ad6431e8c2b6163771b0cd6e5f19bc810967fe4e76c859210a9b74d18f9b7b733e318fb3c745242c1455ab0c86be493503bf0924a59c2beb32c47f4b24cae1de9f8bc7d3f5e75cab08c9191c503c7800156608bed880e06c91731f8a553c53e4d39faf8e1e73648317bb44bc207447e6562f1ce04d07d5659b1c4ca8cb64ac297a62be4b78ad084780cd63024607e0833a98430850295910a79c581316f5f4ce1b694754d10e70bda9ed69774005fd790b6ebb1ba974380e22a6259c7da54af949195c30fe793f5be492fcd50a6af7c54e8b87bf94c437d8189ae7961c61d43c4849b1d4a579a3e86da602876e4adc0c27e308442930e89c5cfe88c9712adeafeb1d67c7f0b13e90dfd190492b7d878424da26dae54f3665b5cb0c92dbb729ad6e8cf0e71608e120383a90ab6052085b8a22a9453a8f47829adfb5a6eeeb3aad50ca880fe0809c9c7404e0706c925e6f5d5bed2cf745782e333c79a0c72fd60d44f9e9e202a184eb11e993698bef64a8a2ae092070ff4ff8ce269ae0706d9d39d74646f1e5d92d963d7a5ff7a1125fc5df8f263ecc21ee544f5e63cebf8ed391bf0c2df49ccfa3a0e9dd714b8e6a2476164e67872149526910489dc525a149e079074a557c3acface20f1502a0787b89381d7877e74ba310a91c93143e717659c04c64296ad5a2e5f5d975eaaf7b4779e466a6e27d312b6f6a1306021efc0c68ae8448c390e01909d502eab93bcd52cac5d3d3247000665493069da12ac3b84908244bf663b072f4134ad9540bb655baec434c564807b0efb861d4c38c69ff1dc5eb02322bcba0b3d7c88eaac7523c4a8dfba28fe74eb5c2e56541df2e99ae18fbbd8e4e4889d2dc4cb933d14e0cc1215f3ee06b479b2e004671bef4a0ef94b12bee76fc353d43dd328a787e520ac541c1105813ac0715c179e17d953095cf8e774064ba05d2d297993a0721ab5231b429ec42085142eb060f4124b05cb6a9d05f462838879f48a753fca7bd815bdbb040525334cf66f22eb347d307d3fbe6d4d1b29f7dd000675b4af7fcd13fe425909a745f9dc6611ae830b17a5264490754f6848e44b635c4d04fb243afdece767a4a70a412fc55b5f902ccf5e4877b6e0037c51c66fea58202a0bfcb8dd9e8c96634e3245717119f6ed1e5b6c89ef7e753b7e0d545bbc4ecb4cc048e1c59b517254f5ae02795e99e336d709b79b5aa1781117cd4b97e9626029c28058753587ebec3f4618cd1a3e641cf892856786b20cb82b8bfb156549fe702fed35680d43e49667f2cb123eba009cb5c1f99fd6eb3fcc805896a03ce49c676e45d8570523a00a802da5b794d29882caaaa668c9dc2636000000000"
}