{
  "algorithm": "SHRINCS",
  "description": "P2QPKH invalid signature (tampered byte, SHRINCS)",
  "expected": {
    "msg32_hex": "c361bae3b4bc02ad50d1b3010be556c7ea1fbe0a19299014492f3b9e60103151",
    "valid": false
  },
  "input_index": 0,
  "prevouts": [
    {
      "script_pubkey_hex": "53206f633109727388dfde56d2821779c89e1ccdf874348d3ba93c9e2c144a3b7305",
      "value": 5000000000
    }
  ],
  "tx_hex": "0100000000010101010101010101010101010101010101010101010101010101010101010101010000000000ffffffff0110270000000000002253206f633109727388dfde56d2821779c89e1ccdf874348d3ba93c9e2c144a3b730502fd950e00de93b85c947c4e5a6f2b0cae5bfe7979efe7f4f0bd71353ab6cc92f599d611f4317f939e59b6ee0599dd3129ce7ae4342b3eefa39c0d42c886d5e61388bbfed090b4ee803352fe8145521a2ce7722560e1d6e8ffcd95aa392726bbb2c09459f80000000000000000de070000a000000036e30100f1e80100d7fe01005ae3010059cd010049d700008cda0000cdc5000069f101007ad701007eb0381dbcc134e1318eb3c0ee6a9f861b06daa6950dffe8544018637700a070a817c4e074ad7f9d069e72c8fe8fd7d5a7b19ca11f506460be6c947e76799517f0d5aea2945ffd72c5e027ae857deeacda9cbcf23fb88128041a03b5d30af846790aecdf57df009731eb2c5dd430ce4cc5c71c2d631b5583c4aaf68abf602fd8973a83b86d9590e8f67660e788b0f3725f3cd071db87e5c87e7bc07a9e0d54e47100ec372884cef1032c92b408ffaf51b7d353ab814c8e53e7f3e265fadadc22d2572706e1909912b9992f7b36c904bf13d018d47a1f29c00dcaa6f4217b4d11962fa12228e16c9a8dcbc691e1279cf2b9bc91a2e2fcef7fa87412408486089fcc039362a5e9ddc3aa4937e177274c8a53976d0bd71f19f65809eee4482951ae8ca42fa96b46ff506c66578f0e8a14b9e8e3eb44480e66a0868f1d22e6d1c451d661d43923da0ec35e83543b133240b33dd8b93e32ba7ff3c6d667fda535dcd535742c9164160fce3de113c137c712c1f6e2f879140697b0948a37d34deb3fbce2c631c721d82b7564aa5290384495085b6e8f12d52934b11a29fdab6ab431e94cd4e5dfb9103b2186c6baf831356b5e90f75ec11186b70ac30cbd7295467babde125502ce771b92bbe1fc8e48fa96e1bf996dbe8b1323c2a4fd3c7cacff626544c7edcd6fb6992f57009ab53d3873b379c4a63ce1a913d4fad771d8a0d067554ea79f6e0822916377241d76f19d218346ec103c333372b9004f024ae9d4f5586fd9ef5d0459a873e309a230fb5415b061cdccfb53e0d311f73a131c90712d54398f0f3e567ef825f99a39e2b8dbcad78275139c78901f6b52139f01243078113819eef2b9afc8a3fe6847b3f7ae16d286807179bae12ec77184c949e33e22fc7b76c207b9452317c24cf9410d796ba31270179559cfcdf5b8020af6e253119c1bb13c66af50205ec849653e4984f4b2f47cac97a9897cf2ea13c6134064f70000994c1e72838140276f02b7315bc60eea4ecb013cfaee9bb68999edc30d63282d020a9a3b1fda891c868271396ad35b02821064a06a0436e83a4d16015729492b79fe025085ee28c18c402519b8ef906d2c23514717139575712af239da24e4f2208e2e9d90f945708a69c2b11f6ed142c7b7165da5f3aa2e3102cc3d957e641c055c362e9ab51439be22df36762bdf0c1db8c7a29768bbfd386e23e9e9837df95a0b0957a25514cd5e2a4db9619646a47a63392acb927ed95cf02d7dbebb0528a660cf4c187d32ec2326a66d40a9a1e117fefb48d021e8c709b72c6da00b184a08125282ade71126e9e6aea51ed4243fb0186b7d0ff0f8ea1789388b29537fc2465c7ae2c71c59079949bb61b52f533510e56d64628531f5bccfb1af851439c84d03e8610879ae512f741f9fd52100b538b029aca93feade9ed280a87dae3f080ae33fa4ba26db9de9ed3cdc2516a579f3a56d21e1f598cb0b5f0e2b99a8529606695c0d7d90e0c65bf900ad9964d473a7630a5a62291b369b6fdbbf759a94604a0006c2573b5929ce57f6f3fac4f1dbd8bb2c270a743cefbe98c15a4b8406323aec50fcef45f270c0570e6866e1b59756eec219f028e701e11d93e830c27ec3b54645d2688d467738b8667399e1e28fffd44b80ea3371eddbfbf005c81f45063062380f61c7db2f0410f428371409f73374c9a755aaedeb9e62d235695b033458616499639c6785ccd29f8189c578be9de2d153c8dfc40c673a0345f2d3115635d8891a4b94f9780d0cbec0f15d4c3256edf26134ffbd2efbe44e1ca29e8f54d5e4ce8071a95f0b6d5605b8b5b18398a07839a3331f96043216d2dafb190bb7f40c61734d139f4efd02b5d4a9e7a4df8e9d13d5f8e9b36009bd1dd14f29706b29b4bc18d05169d3030ad7988377de4c9aafd70a50a98e3a21ec4c0c6a227d3397bf529a6bced12b88a0865edd9bbc7be4ed449d1f09705b9ca30d21ed238393a7d729801b3e29799840b99c86c7663031c2b8c74de839fd06a7359f2c34272a2383fa54ecdd2f39643481659fd71232ba217732900e517b6cff43d56fd7637b0bc284c58479acb143cccfda024a464c89602e37817f9e0605275594b2b2d3363fad4b18a960621f9eb62a4d8add0258ac4c275d6c4f1b5c8de0c752823091dec165da0b98d2aef6f5292a7c0252b151abcfd563ce885e1d09b38e9fe153dc35f98f25e7de584ed483bddc13f175af20135d047a651c4539f937f0a22c60db6b234f9bd51faa17c545ca7f768921c5814737fe6aa40bd98d113e80c3fb1de2425499e00cfb8891cc848a7f052a8428c70e789deb21691a046296b779004cad2877e8686143688d407269781bfdfcb831d146e3100e786f953e319af408b18182e9b0af55b87f5e11a955e0d9cf28c68f45a714e47c949c781dc75479dff477a52bbe90d53092fbc922f79c786991d3cd01ffbf79e25d80c185631e9a45c6eb04fc7f213371904bf03ce0d8b8d70113188080b7a34a4a7eea6195d97f6323a194d5b3a401f99f7df5095208f7ba1b4b76a30697bea2c5d6c9c0eb42075b135cb1bb2e39ae0e90cd3851f00e5d38d6478462cbcd277c748717fcfe3063fa9f52e1aa9ab35632c548706a8d8e4e893c89bbfdf8dbaf5724b9f4229dbe75d4d81a6a897e187927da477671c5b8ad14096490b6a05fcf868d2e0bbf171588fd83d718b8b65b0f77586b5bb51015eb2a388d76c02232e3cbee6d77fd83da3cd2d466b1abd5a7744bbfa5f1a7c710de1ca3f05e9c048e0100000000000004010000250000009419982cde08efa61b35568a5ac2d7fb13d14bc57ba959aebdbf5ca85727e618ced2faafad2c4889b27037a3045cd3c94d4f4a45a1c0255e11aa345dc4c94e6b892b9a97423dc3c7bd98b49595d35d4354b72c07e808ec7b8034c43561db97820887c8d89ffa6782db58cec42eb2062955ccc8c102d10ca8868ddfd85a0b768609b56b0b09f7b818cefa72531e5eb9100bcf9b04ba40f32e6602f059e89b0c9710d894fe73e2a848066d22941f050f41a17eefac2c1a245fe81e6c4992218728da4ddb774a05ba0af961323fa6bc128ae5cfe8f8b53e6d1dfcaa5cd3310e80a75a7bab4d8ccd87f12daa2f0f4d735fe275db579cd0dbea943c7e49749c2ed7900800a83863d1b447a68a8822f1acb4a0408fc35cc9a609436a644707f78ab3a8b62b4b0d1ca9ffe32d18ec6acf3c6e4d6b0b8728ea9b4d38b672322e03ca5fb4ff1e4b0f33e35ef30a71eeb04a93d4a1848dc070f46bc47c9a571c5d263d2cee0843c9308751d95939194dd39d38a694b7e3ab29cede85decfec07d887b6b1fc3fbe8e01000000000000040100006c010000b19e7492815ce57fb4fd55d829cfc1062d973474d4f8b6ab44509a0ccb293b9517e5242d3654cb6f08f124dc5a7c69a2954b405c622ec96f1881af7c141647ccd30f7c8200fd3fe31a613c0060108316c104618db05bdcf1be7f05075fdfa8cc604ccf2e0115fcdfc719eec16f0f5ea8d4087a5091081fdbe9208f5dd059a5b60c71ba12e69854e561c252c947113985f3de6fc9f22ec88c5d62c656f8018c74e7f2c8bf23ea62c13541549f55203d054819005d7a8ab144b43881cdfa2d7da4b6c662c38803fdb47aa610ee575c9e0b360d858b3c8b3d1faedc05e3b538fd073c61d3e52d530a9f120877d5dc3ba33065b3a7f1d97ac9f64346d36ea43e1aec08002344c45bf764f78217f0b64277b99ee397716551bb41671e0f8aeca3bc2c0c7e648d45d28c5691a18e9b505d96dbbbb3312fd478b0a70fd38626e33bc12f719d8a673369646e7df06b1d2bcbb8ebaa4f4437a053f1b422ca2b8b103600196e791f7b5f3e23dfed1241304ffeed348d936399656c183bfd22948265bfe89920ac8e0100000000000004010000c5010000e9d7f1ee7f5d55a488c606f895651ed4a928b06277223b3f5dc7ab53ccef9da38f83c91c5090fcf95d590a9dd31e8a8668f16553a2e066d240adae15da00b8739b795059f234d1da90cb34e0cc238f5fb1c4bf4c74aad923f9a410e9b552ed164d2490f9ecb5d33428e32ef9432a609d52f086efd79c1d23477b583a4563555cdc7a42ef69ee7eae9bbc8c7e55abc65a4dadf03402c0471cc5326f30ab890e75dcff5e0759fb04eafb9c8bbf5d4df6895b529f91c287f9f9f737cedb185214fb13e449445b32dd0c5977d69ed1844657762d865113ce26128c24aea60fa52340ce24a3930fe3285dba5f99ecefef0448d15045926ace2a19199bed6915be9b3508003dfb5d6c8c3bc512a52baa9dae85cf93f2d8d1d6201712407fb13d923c55a035674f5fb462789cc3f658597f9b8a9c78a72a025de32c87eb9c449dc5c08b9d66dd48b89bd8041cd3fc0593749e4b867926a93634e2bb90d68b80f1d4465f93aea21b510e44d2b812334e4126a15672a5fbb40cd6f6a02aac449db72cb190a3e68e01000000000000040100006e010000d951411b0ded0ae207ffb6c052bd12bdeee8158a591c5c4cd32529ac837eb4476326ec18ee241bb8028e96fe98a8f1a35f05b1a75cef378853e9f8f341a73083e4a453d8fd8750b050a957993f05f9533402c2c8bac700ad9138e64bfe5fbf4e4bbe5f26de4b09eca3d7c463b7efb683a6c79f2a73f2be62d3d2af7cff4e64c68dd5a544fe6f44dcde1838ead384837a1251ff0428615eaf3ada774e6e4a1150d97273d815b6ba3a49fd4ce6d1d89e254af4f1fd8dc432fcee1b3e30b0008b5121666f15245ccc20b340b05018f4cc5114ef7bed331a85ac8d0c51434ccb96997364914540163f10e1c469d5f02a4623be2433abda57c6584d18dcf6640db4430800410e4a16dc7b25d3424f5d342d66d4ec382888dc01a91f0e56217aa1717eedcdc76f52668faa6239085898f6420f69aab0bf97e95ba2fc0ead06edd0d96533f0cf86bd74298221a39783bad99f49284b46e6b7a0f5d96522175e1a2defe1b8b054b4adab5006934a0e1c7e98d7fa3af3ccc748f5e2e138842f18339ccc0881e00111304fca014f2e1fe583c077f157805cd87200000000"
}