{
  "algorithm": "SHRINCS",
  "description": "P2QPKH invalid signature (tampered byte, SHRINCS)",
  "expected": {
    "msg32_hex": "24fc374d490a707df7b4ae0042035b5393d5e50069bf09381f28bf20cf4bba2c",
    "valid": false
  },
  "input_index": 0,
  "prevouts": [
    {
      "script_pubkey_hex": "5320db398fd47a904a32087475ddb6d3f3aef15cdb5750d1cdea5ad92be6b2ff9de0",
      "value": 5000000000
    }
  ],
  "tx_hex": "0100000000010101010101010101010101010101010101010101010101010101010101010101010000000000ffffffff011027000000000000225320db398fd47a904a32087475ddb6d3f3aef15cdb5750d1cdea5ad92be6b2ff9de002fdc50e0061ac065815eaed792439d160ee624b786ce17968142e40689af5330151821bff4abac396daacfde58a52fa36dc1bba0191089313e35df927f5854aab660281c69071edd6608ab4b2a78af109ea37b1ac9fd651119b368f343fa08da257be12cd00000000000000000e08000096000000ce200100bf45020098a5010048460200cfa10100ff2d0100371d020096a1010024bf0100411801009b9671f216ba7a8d9ca060cd5a3a82bc8e5f911238bc29536e9c551dbd6264b91de95803c7ffde602709f0b64fd99f5ae696a5c2d52837765358e9fa18bb671da444f5223d3844d456bd142097268731a7c51a3cb1513e662c94dd18c9cbd2f8db39134b341282da3368bfb516c28b184e0468c3f8b63b2e16da54adc9b4a8ab9f45ef8479be05d39501dfd53f00607188dae2e66b414a55216620a03de576d47400e7c658f209d8a5f957211605629d2bb3fe52363508be30c4040eae14256276cbba7b3498e36e9f562524c9447487f35077129fbec031a42465891ec7e8269fbbd339790c70aac1561c68bda5c5c61ce4d004cfdc3431e952032461e167b2d37d4498c09e27c55eb778f08a0698d87c9233faa040283ba11a1991065c4b333b98f242dca2351f832f84e65ffd2e7832a6c567ba98636cc53bf9622e1255c506b6c49115d2bfbe15c4d844a614b287efbdffa6944df6f320e9ec579a7b32f972851ffb8d2706597e16b18735f87f325968848459326067b01c0c175741fa719c1ee2231d9c3aa79f8a2229755f1a26167baf0e23015168e3a5269d6185ffb032fbdfa5eae6068bcd212eec4052fc7d750d6c5818494b4398ef82e25b6b28bef1b7d8aa90142847524f015de3c5b8d11f4d9c141bf120a48972bc63f3fb145933d9bf2f658743e141f212ffa87808ac9338d20ae8b52cca5b21123731ddfb89aa1052dd5c9b753d42ca4d9bfb0e72447ece703e8d8d779e9c0358537b4ab81ace0cdf2c58771640302de6a6e14e44144e1b7d3269951b10010f6d81869b273b0c7b781fbe6ffffdc8a41b375a851c836d54d046794d06677e52313996981322ea5830ee49b1b943b55ff4c61055eb0d5ffb478a57296c05ea5c357db06e1282e2f93101577a8de31691c128ae320cf41ab3ef93ad6585057d919c8acaeb62670b166fe88f15a085e3d0045795f70e775444011090c5e3b666d5a71f8938b892dc63480dff695309975a98e8c997dbf1807056ef98312f567b23ddbc1bf2a97fdfa358e214ef4f9b34181bc8e9c42daf10501ceaf78899a5d34ee4770f185aa659712b5dc03cfc9393800babc0b3bca7018927446bb9befb0f0634a2b43b71cc904a4fa3e54582dbe6be191def291fec3d85e692d99545167d4a5ac484519d33e773b2e2ec89d88bace363adb808eebe0283d89556e866e744dba76ace99e2f6f15b51896feef2dd605fd97bb16248e2fd5fbd4d4931bfbb0d05575901d558ea8b468d2eec38c612e2671811c2c97ed5c73e601392fb6c912a17ba01132d86ae903441eadd1e001c68ae03ffc6833bef61ee0828def66dca9fc16546a2cea995a5ac50af480859b32174ae8aa70b7874583ef839655399bac563d1305393a9dfcff818622d0732b555439b60e393cf2b2d31738d6bc2e894883d2ccf69db17889aee9eb731237c22bb7de9198d14b26e7b953e2bc3c93685c6b139fe2667b16112227d1a46a059eb4bdf3d3e22f9a642941af6c01b99364258164ce961c1bb01d38817393f203e2009809f2f8f5d3565f15abff1de491a3db9cacc6ee519a4e19dfcded852771ec8ae5f23355cdcb5633cacac2a330720b560afa3712e7e1e3b9de41133859ec8edc0158753810673cd02b2f33870a60fcd1bd3f81c68826a758d64b093708280f55b0208f24bdc1253a1828d4d45d205dc5e84b16992bbf1ddbfd763aa432a23d5b8d41a64c78c2776d4404c6c754fc3248b1376186e2fee57ba02087f1f81cbe339b0a3cb652e7a086e5ab5f04bf601ea479863ccd25955bf83754ae5b9cbc19dae9c7c2bb196d215c2f5763bf2218d91b2b55f4950be412549e38735928539bc200db6c27fef8d3acdef1c0447986f718949b0ff1ec38c3224764968b09e6d14b0d94e0a1b2150a14f6b1d444ef343598ea46e5bd12764999ff675f82aec20c30340a14f5f737589a78b3d269fd590e1c75f625c388b220aad671374ae9b3cde033000f8766c6b4cb5cb5d7b533aa75dc275b2b0eb276c95ee1f858084fbca0cee3bfbf0a66204455437f5fe007f3517bdb2f01eca50cd1eb56cc769dcbc27b3df2881351e4737d701ada07b6d8e1fbad3ff364af04d906185a0fdbd1a5d9aff07650738cb1bf3f0b0d87df4573863701c31ce3661e88386e8f5447785070a5b553ea9be4eccd60e6b5f963a596161fe8908c32d2dd5d083af5d2e63a88f36aba90deec95456cb034b6026e5ba608238ff25385987578056edd4bd6cde3bce63a68c8a581d239b705871e7d219c2399a7163e3f2a1994ade99fc6bd749e87157a7837ddbfe08af77f1e165027f028a232fc26752d8341a34b278127c00f2094a6b7492044a7d3a23cefafebae24f25c7552db2b0027447c7db2156256aae1fd1f73eca0c63f98ab3f56ed3fd76ddcdbb96706a0832a0f8c567120c582cc2f4660d35d28716c0788d8a43b35d46a356989a465d987652c588b9d0e2488c8e279431759d4ac6d00370c89d3de4c4598098c8d8c1d051ae0c61c836adb016c9847d0342d5aa22e938c3f302e514a5f5e60c4c16a80631cec2f7caed8ee375cccbd6ff07a9a53c06ba1082329027d5d9385826f1228e451ee467dd854b459072e16bc3c8651efc87158a08499837a4731bc1d1b29530b1e9c38db1fb896fa321cf328fc4ac026edcaf2d8f47448efd9f12a01953f55e9a1ebea5cac12c3856227b7b8ce869ac1d67b6cdf5bd5dc881691389a693690cbf6a430e50516f08122bce709a88f60e5e68219fe8d35394c941756d24aa64eefdbb181151c93f3397f3b206f006494ad179a62e4c0d81ea0bb16f9c4343fc74c4a147ad4d71048e010000000000000401000053030000111c9f5e797a1e24ee6e4b7e92b289cae5dfcbabe84dd445add27f399c8f50223917312c15c2a9a7a662d31997b31e0811b2920ba1ff5968d2ec4b85298be64af416575c7448e57fafeec7d601843f8c2d3758a95f0784e8bf7c6b2cdc7cf7b95464dbd369321a0206336ac57eb563b48510ebb442ff0b3694b0d3d32dd610c0e40191f02efea1bc3ee680ccf25828b3590c87499a1b52843c0bfb2a361c84253581352a0e24b546816e0247bca4ca7f73b1ec7f1c82178079a019fc435c50f3ef69bc2b1d47b5e3776ad552546c48e707db2d5d61a41c0c1b772047c8ab038f6e52f6146b3965783cf53d5bae97edb5520922c8f775903b0a2c00673e87e4df080047c518288ae2801812be364ae27558ecfeedb8ed5bdecca9fc501ee2ad42b483822e4abd272f274516b015977fb4be5fb47f99a7e3023b99cd85ef121fd6d251f9c4344ead2854865a6cd89d5af2f9a4de5a9bb4f43f0b4e9dc4a841b13eca44a5fb7ba42d6e0efc1c4931f7c78c94ab75fb889857619d2019fdf86b070de4108e01000000000000040100001003000082152bb77e1720098a93c6dce0b13db62db59325b8d681c5ea8824e38067e5cc2dd21e4f19f36c3ea56ed7a22ecebe38d36e1acc59eaca0ee1333c19efdf819695014c971c4a94939c41aee3900eb62e588e4cd2ec1f132ea7120d80c0d792bd2df412802d21cbeaeece484d637d096309edaeebd9d908b3ffb9c70aeea4727f85829cc4ff78915fcc067107c6448f484ace0dd45d59721f16b1fb77ab860c3244cfe9c2197e5d85f02d594af47a210883b896bdb368d4ef5f784367501c0263157f1087159eae862d3574a3733dd7100b26f7d5ebcada6c73a0c14f341e08af62f0b2f0a2a105cd4e825f8101403b480c825deaf165748b2c889b7c51a412df0800e0a7708d50150519fd5f12dbccaee3d0a5ab9555d7e13ccb40b2db1554932f0601b96d66311a307513441a2923bc351518414a358665c3c670eb2099b7338a2d5f7140424027dce71970285319ca935d344e98fefce81387a701878ac8bf24fce5022162a025fcf29a3b3920756a2d0654eed225a18100a41951a0db4a62f2828e010000000000000401000068010000958cb069b33d749b80932d5915e485e8d7242cf764e9af3730404ae19ab4c5c64856423e9edd30b89cbf9187d9e850e35b2ac3f4543fd01024bf96769ffed5806c7ca0b4612a65d518b880f01903e509c4fbb4e3ea84abc1233920d8fa914a94af0c14b1dcb642f39a871659f12d005b40fb584ff8b93705ec1934c9d3615957894350b5b087406cc935953b37600ee275a5bd0076ef9082dc172058078322d0fd963c3300225d20f4506d49c9220da19fe0fc4e3eaa28aae76c368a46637e8e5979a1e031c6540927e91fb35495ee7016205d90436ec5f44e4fb5c41ce78706e27d0ce6a6c0dd77f2b0747517dd21f6ee405d593afdc4ea9c1a688a3dc2247e0800d4920d89f4656fdf56ab2d2aef041fcbeba6f1080285b7c4e2465a47e7283b88f3851de6a385a8c6c463dd33f3afcdc5f0de9a1945069461a77fc9d5d20d4359fc63462fd0a1f6b856aff072f43ad7066118fd3ebe45c41e5e1768ef193109674e1bc79c6a68c56974b8373940d011b99882f5f62b5e4d073c8c8181db85fb528e0100000000000004010000ae0000009be108375950a4a6830ce8fa22f118a854ea893c4656ce1aa93d915052304208011ada52fdecdc0118f52103d26db23eaf20add5d99dbe1511dd206166849750e5b5549871203317aab2f5145b4b4a486d5304f0219279cdf9739232f223f7442caa99a3c55b3e1c48f82408d12808e3764fc130af628c0bdb20773eb3e876f0b4f59555c23434ef621a9853f7e965115f6afdfe37fb1758330d6a638104002df6d307b2ddbcbd8c9445446e8e8ce89f4545d8ef20df1d019c8582d27762b2c14c05d0b70829ad3caa1147a7ca17313fe78e69be74a2a517617ce7e9db1fb02feea68e153052af093bd49ed75841a020fd23abbac49aa6eb5290a16fc3c7985a08005b2f640b98064ac4e0d65ac1f646abe42db761446dafbb307fb0129c67a47cc8375f9fccd8557d4c98eea1909f7f5965eceb88214b35e04567dd880c6d8d15e8f1231b26c5e516da669f9fdc23d64efe34e39772ed9cc8e08626ddd451236cb273e20aea0c0b0dcb7ad07f59eca94d5e2f90898c4416d755d4350e379af543970111307882dc05b0b45e0921a696d1a03e927b00000000"
}