{
  "description": "P2QPKH invalid signature (tampered byte)",
  "expected": {
    "msg32_hex": "013712934ea85ba23de867ff15aad99f173ae0fa4c3a20ce2fe843040c92de5a",
    "valid": false
  },
  "input_index": 0,
  "prevouts": [
    {
      "script_pubkey_hex": "532066bbf7403cce2f201c58d30104a66e463d0ea0de335fd68e8d2f133b9e72d071",
      "value": 5000000000
    }
  ],
  "tx_hex": "0100000000010101010101010101010101010101010101010101010101010101010101010101010000000000ffffffff01102700000000000022532066bbf7403cce2f201c58d30104a66e463d0ea0de335fd68e8d2f133b9e72d07102fd450100000000013712934ea85aa23de867ff15aad99f173ae0fa4c3a20ce2fe843040c92de5a013712934ea85ba23de867ff15aad99f173ae0fa4c3a20ce2fe843040c92de5a013712934ea85ba23de867ff15aad99f173ae0fa4c3a20ce2fe843040c92de5a013712934ea85ba23de867ff15aad99f173ae0fa4c3a20ce2fe843040c92de5a013712934ea85ba23de867ff15aad99f173ae0fa4c3a20ce2fe843040c92de5a013712934ea85ba23de867ff15aad99f173ae0fa4c3a20ce2fe843040c92de5a013712934ea85ba23de867ff15aad99f173ae0fa4c3a20ce2fe843040c92de5a013712934ea85ba23de867ff15aad99f173ae0fa4c3a20ce2fe843040c92de5a013712934ea85ba23de867ff15aad99f173ae0fa4c3a20ce2fe843040c92de5a013712934ea85ba23de867ff15aad99f173ae0fa4c3a20ce2fe843040c92de5a0141305a5b58595e5f5c5d52535051565754554a4b48494e4f4c4d42434041464744457a7b78797e7f7c7d72737071767774756a6b68696e6f6c6d626360616667646500000000"
}